:1000000004308A005F2C0000FF00030E8301A10072
:100010000A08A0008A010408A2007708A300780853
:10002000A4007908A5007A08A600831383128C30F7
:100030008400801E1D288C1A34288D308400001CFA
:1000400023280D183728220884002308F7002408E5
:10005000F8002508F9002608FA0020088A00210E79
:100060008300FF0E7F0E09008A110A123A288A11B6
:100070000A12582ACD01CD014D08023C031C4A2822
:1000800032304D07840083138C1E44281A088000E8
:10009000CD0A3C28CF013230CE00D401D2010A3043
:1000A000D300D101D0014E084F04031D5B2800305E
:1000B000F800F90080295408D40A4E0784008313FD
:1000C0004F1883170008D50055082D3C031D7428D0
:1000D0000130D2005408D40A4E07840083134F180D
:1000E00083170008D500812855082B3C031D812863
:1000F0005408D40A4E07840083134F18831700084E
:10010000D50055082F3C031871295508393C031CAC
:1001100071295508303C031DAD2854084E07840052
:1001200083134F1883170008783C0319A12854083B
:100130004E07840083134F1883170008583C031D93
:10014000AD281030D300D40A5408D40A4E078400D6
:1001500083134F1883170008D50053080A3C031D6A
:10016000002955082F3C0318FF285508393C031C6B
:10017000FF28D7010A30D6005108D9005008D8000E
:10018000570859068039DB00D71FCB28D609D70975
:10019000D60A0319D70AD91FD228D809D909D80AEB
:1001A0000319D90A1030DA00F701FA01D70CD60C7E
:1001B000031CE0285808F7070318FA0A5908FA0739
:1001C000FA0CF70CF90CF80CDA0BD628DB1FED282B
:1001D000F809F909F80A0319F90A303055027807C5
:1001E000D0007908D1000318D10A5408D40A4E0768
:1001F000840083134F1883170008D500B128712994
:100200005308103C031D71295508603C03180F2941
:1002100055087A3C031C0F295508DF391029550869
:10022000D50055082F3C031819295508393C0318E7
:1002300021295508403C031871295508463C031CE8
:10024000712955082F3C031842295508393C031CD5
:100250004229500DD600510DD700D60DD70DD60D21
:10026000D70DD60DD70DF030D605303055025607D4
:10027000F8005708FA000318FA0A7808D0007A083C
:10028000D1005B29500DD600510DD700D60DD70DEA
:10029000D60DD70DD60DD70DF030D605413055020D
:1002A0000A3E5607F8005708FA000318FA0A7808B9
:1002B000D0007A08D1005408D40A4E078400831372
:1002C0004F1883170008D500603C03186E295508A5
:1002D0007A3C031C6E295508DF396F295508D50073
:1002E000112953080A3C031D7C29520B7C29D00993
:1002F000D109D00A0319D10A5008F8005108F900B1
:100300007908AF007808AE002F08CF002E08CE0085
:10031000D1010A30D0001030D200F701FA01CF0C21
:10032000CE0C031C99295008F7070318FA0A510844
:10033000FA07FA0CF70CF90CF80CD20B8F29790894
:10034000CF007808CE004F08D1004E08D000D3016E
:100350002430D200F801F901F701FA015308031D16
:10036000B42952080319CE291030D4000310D00D3F
:10037000D10DF70DFA0D53087A02031DC129520859
:100380007702031CCA295208F702031CFA03530818
:10039000FA020314F80DF90DD40BB6297908B1004F
:1003A0007808B00083160D140B3083129500831665
:1003B0008C1283128C128A110A1223288318E329C3
:1003C0006C308400831367086B068039F100E71FE7
:1003D000F429E409E509E609E709E40A0319E50A4D
:1003E0000319E60A0319E70AEB1F012AE809E909DC
:1003F000EA09EB09E80A0319E90A0319EA0A0319E9
:10040000EB0AF701F801F901FA01EC01ED01EE0147
:10041000EF016B086A046904680403193F2A20305D
:10042000F0000310E40DE50DE60DE70DEC0DED0D0C
:10043000EE0DEF0D6B086F02031D282A6A086E028D
:10044000031D282A69086D02031D282A68086C020A
:10045000031C392A6808EC026908031C690FED02C5
:100460006A08031C6A0FEE026B08031C6B0FEF0295
:100470000314F70DF80DF90DFA0DF00B112AF11F09
:100480004C2AF709F809F909FA09F70A0319F80AD1
:100490000319F90A0319FA0A6C088000840A6D0826
:1004A0008000840A6E088000840A6F0880000800BB
:1004B0000130AD07D001CF01CE012D08CD000A30AB
:1004C000D100D3013630D200D701D601D501013099
:1004D000D400D901DA01D01FAD2A0130D90050086B
:1004E000DF004F08DE004E08DD004D08DC00FF3065
:1004F000E300E200E100E0002030E800E401E50173
:10050000E601E7015F08FA005E08F9005D08F800FF
:100510005C08F7000310771C9B2A6008E407610859
:100520000318610FE50762080318620FE607630806
:100530000318630FE707E70CE60CE50CE40CFA0C74
:10054000F90CF80CF70CE80B8A2A7A08D000790825
:10055000CF007808CE007708CD00D408031DB92A53
:10056000D508031DB92AD608031DB92AD7080319CF
:10057000312B83105008E7004F08E6004E08E500D5
:100580004D08E400EB01EA01E9015108E800DE2131
:100590007A08D7007908D6007808D5007708D40003
:1005A0005A085207F8005308FA000318FA0A7808A4
:1005B000DC007A08DD00DF010408DE005F10831B29
:1005C0005F1483146030840083135008E7004F08E1
:1005D000E6004E08E5004D08E400EB01EA01E90100
:1005E0005108E800DE215E08840083135F1883173A
:1005F00030306007F7006108F80000300318013060
:10060000F8076208F900003003180130F9076308A1
:10061000FA00003003180130FA075C0884008313E5
:100620005D188317770880005A08520784008313E7
:10063000531883170008393C0318272B5A08520710
:100640008400831353188317073000078000DA0AE9
:100650005708D0005608CF005508CE005408CD00EA
:10066000AD2A590B3C2B5A085207840083135318A8
:1006700083172D308000DA0AD80103105A0C580273
:1006800003186E2B580852078400831353188317DE
:100690000008DB0058085207F8005308FA00031856
:1006A000FA0A58085A02FF3E52078400831353186F
:1006B00083170008DE007808840083137A188317F4
:1006C0005E08800058085A02FF3E520784008313D8
:1006D000531883175B088000D80A3D2B5A0852072D
:1006E000840083135318831780015208F8005308BD
:1006F000F9000D108A110A1223284B18812B0812B9
:10070000822B081603104B0C0139031D892B88120C
:100710008A2B88164B0CF700F70C3F30F70577084B
:100720000139031D952B0813962B08174B0CF70066
:10073000F70CF70C1F30F70577080139031DA22BC2
:100740008813A32B881708004830840083130008FF
:100750000319B72B0230F800F701F70BAD2BF80B9C
:10076000AC2B9730F700F70BB32B800BAA2B0800AC
:100770000915BA2BBB2BBC2B09112030F700F70B46
:10078000BF2BC22B00000800490ECA000F30CA055B
:100790004A08CB007D23B8234908CB007D23B8232A
:1007A000080083160812881208138813091109100B
:1007B00089108312CB017D231430C800A4230910B3
:1007C00089100330CB007D23B8230530C800A42353
:1007D000B8234230F700F70BEB2B0000B8230230B0
:1007E000CB007D23B8232830C900C4230C30C900B6
:1007F000C4230630C900C4230130C900C4238A11B0
:100800000A128E2C80080319222CC6010408C50088
:100810004610831B46140008C70043088400831356
:100820004418831747088000840A8001C30A03190B
:10083000C40A45088400831346188317840A0319E1
:10084000850A022C8A110A12BF2CC608031D2C2C03
:1008500080304507C7002F2CC0304507C700013046
:10086000C800A4234708C900C4232030F700F70BB1
:10087000372C3A2C00008A110A12C32C4608FA00C1
:100880004508840083137A188317800803195C2CA9
:100890004608FA004508840083137A188317000875
:1008A000C7004708C80009144808C900C423091034
:1008B000C50A0319C60A3E2C8A110A12C72C03085E
:1008C0001F3983008316031787110C300313990017
:1008D000A2309800903083129800AD01AF01AE01B4
:1008E000FF30C200C401C301831603170908C039D1
:1008F000890003131F129F12003003178800831210
:1009000087018801890183130313A701A80100301F
:1009100083168500850183128501D12B421142087F
:1009200083168700831207110C30970083169B01F2
:100930009C0101309D008312C21442088316870077
:1009400083129D0105309D000030F80006389200AA
:100950007C30831692008312950183168C16C0306A
:1009600083128B04421042088316870083120714F7
:10097000C4013A30C300363084008313022C0130A6
:10098000C500C601252CC6013A30C5003E2C031017
:10099000310CC600300CC50002304507F80046088F
:1009A000FA000318FA0A7808FA08031DDB2C2D0850
:1009B0007802031CE02CB008031DE12CB1080319D8
:0609C0009501B82C630054
:04400E00F22CFF3F52
:00000001FF
;PIC16F887
;CRC=52AB  CREATED="28-Nov-14 15:11"
