:1000000009308A0087290000FF00030E8301A10048
:100010000A08A0008A010408A2007708A300780853
:10002000A4007908A5007A08A600831383128B1E0A
:100030001B280B1938288C308400801E21288C1A2C
:100040003B288D308400001C27280D183E282208EC
:1000500084002308F7002408F8002508F900260882
:10006000FA0020088A00210E8300FF0E7F0E09008F
:100070008A110A12BD2C8A110A127F288A150A12C7
:10008000002810308316BB00F701FA01B80CB70C3A
:10009000031C50283908F7070318FA0A3A08FA0728
:1000A000FA0CF70CF90CF80CBB0B4628831208006D
:1000B000F801F901F701FA0183163C08031D6328D2
:1000C0003B0803197D281030BD000310B90DBA0D8F
:1000D000F70DFA0D3C087A02031D70283B087702E1
:1000E000031C79283B08F702031CFA033C08FA02B8
:1000F0000314F80DF90DBD0B652883120800831653
:10010000B601B6013608013C031C92286830360758
:100110008400831383128C1E8B281A088000831698
:10012000B60A8228B8016830B700BC01BA010A30AB
:10013000BB00B90137083804031DA1280030F800BE
:1001400094293C08BC0A37078400831338188317A6
:100150000008BD003D082D3C031DBA280130BA003F
:100160003C08BC0A3707840083133818831700083B
:10017000BD00C7283D082B3C031DC7283C08BC0A0E
:10018000370784008313381883170008BD003D0823
:100190002F3C03188A293D08393C031C8A293D0855
:1001A000303C031DF3283C083707840083133818BC
:1001B00083170008783C0319E7283C0837078400B8
:1001C0008313381883170008583C031DF328103098
:1001D000BB00BC0A3C08BC0A3707840083133818EC
:1001E00083170008BD003B080A3C031D38293D0861
:1001F0002F3C031837293D08393C031C37290A30A6
:10020000BE003908BF00F701F8013E0803103F188F
:10021000F707F70CF80CBF18F707F70CF80C3F19A5
:10022000F707F70CF80CBF19F707F70CF80C3F1A93
:10023000F707F70CF80CBF1AF707F70CF80C3F1B81
:10024000F707F70CF80CBF1BF707F70CF80C78084A
:10025000BE0030303D023E07B9003C08BC0A3707FB
:1002600084008313381883170008BD00F7288A29F3
:100270003B08103C031D8A293D08603C03184729B0
:100280003D087A3C031C47293D08DF3948293D08D1
:10029000BD003D082F3C031851293D08393C031887
:1002A00059293D08403C03188A293D08463C031C57
:1002B0008A293D082F3C03186A293D08393C031C54
:1002C0006A29390EBE00F030BE0530303D023E07CF
:1002D000B9007329390EBE00F030BE0541303D0231
:1002E0000A3E3E07B9003C08BC0A37078400831366
:1002F000381883170008BD003D08603C03188729A3
:100300003D087A3C031C87293D08DF3988293D08D0
:10031000BD0049293A0B92293B080A3C031D92294A
:10032000B909B90A3908F800FA0178088312B5004A
:100330007A08B60036088316B8008312350883168B
:10034000B700BA012930B900831241207908831619
:10035000B8007808B7003808BA003708B90002308A
:10036000BC005830BB00831258207908B2007808CE
:10037000B100B108031DCE29B208031DCE29950195
:10038000AE01D601D501D401D301DA01D901D801DA
:10039000D701DE01DD01DC01DB01D4297D309500D0
:1003A00083160D1483128B1683168C1283128C12F3
:1003B0008A110A1227288318E029D5308400831374
:1003C0008316500854068039DA00D01FF229CD096F
:1003D000CE09CF09D009CD0A0319CE0A0319CF0AD5
:1003E0000319D00AD41FFF29D109D209D309D4098E
:1003F000D10A0319D20A0319D30A0319D40AF7013F
:10040000F801F901FA01D501D601D701D801540844
:1004100053045204510403193D2A2030D90003101B
:10042000CD0DCE0DCF0DD00DD50DD60DD70DD80DD0
:1004300054085802031D262A53085702031D262A72
:1004400052085602031D262A51085502031C372A5A
:100450005108D5025208031C520FD6025308031C40
:10046000530FD7025408031C540FD8020314F70D7E
:10047000F80DF90DFA0DD90B0F2ADA1F4A2AF709E0
:10048000F809F909FA09F70A0319F80A0319F90A28
:100490000319FA0A55088000840A56088000840A65
:1004A00057088000840A5808800083120800B93079
:1004B00084008313000803196A2A0230F800F70148
:1004C000F70B602AF80B5F2A9730F700F70B662AC4
:1004D000800B5D2A080083163C18722A83120812CA
:1004E000742A831683120816031083163C0C0139F4
:1004F000031D7E2A83128812802A8316831288168F
:1005000083163C0CF700F70C3F30F70577080139EC
:10051000031D8E2A83120813902A8316831208174C
:1005200083163C0CF700F70CF70C1F30F705770823
:100530000139031D9F2A83128813A12A831683126F
:10054000881708000915A42AA52AA62A091120300F
:10055000F700F70BA92AAC2A0000080083163A0E10
:10056000BB000F30BB053B08BC0083126B22A222EC
:1005700083163A08BC0083126B22A222080083165D
:100580003A080319302BC2003E080319302BC2076A
:100590000318D12A7F30C202031C302B0319302BE1
:1005A000D52A8130C2070318302B4208F700F80122
:1005B000F901FA013B08C600C6173C08C5003D0812
:1005C000C4001830C200C301441CFE2A4108FA07C7
:1005D000031CF02AF90A031DF02AF80A0319C317AD
:1005E0004008F907031CF72AF80A0319C3173F0844
:1005F000BC00BC173C08F8070318C317C30DF80C60
:10060000F90CFA0CC60CC50CC40C0310C20BE32A7F
:100610000130F7070318302BF81B152BC60DFA0D08
:10062000F90DF80DF7030319302BC61F262BFA0A14
:10063000031D262BF90A031D262BF80A031D262B62
:10064000F80CF90CFA0CF70A0319302B3B08C3001D
:100650003F08C306C31F2E2BF817342BF813342B77
:10066000F701F801F901FA01831208008030831CB8
:100670003C2B8316BF0683128316C401C5013B08B9
:10068000C3003F08C3063A0803192A2CC200F7002A
:100690003E080319332CC2020319CF2B031C8D2BE8
:1006A0003F08C800C8174008C7004108C600C50178
:1006B0000310C80CC70CC60CC50CC20B572BC31FAC
:1006C000642B4414472C441042104416BD3084005F
:1006D00083135C2C4412C31B772B421C822BC80C47
:1006E000C70CC60CC50CF70A0319422C822BC81B79
:1006F000852B0310C50DC60DC70DC80DF7030319D3
:10070000422C772B4417EF2B44133B08C300C31F25
:100710008B2BC8173B2CC8133B2C3E08C200F7009C
:100720003A08C2023B08C800C8173C08C7003D0889
:10073000C600C5010310C80CC70CC60CC50CC20B03
:10074000992BC31FA62BC414472CC4104210C416E7
:10075000C130840083135C2CC412C31BB92B421C10
:10076000C42BC80CC70CC60CC50CF70A0319422CC5
:10077000C42BC81BC72B0310C50DC60DC70DC80D54
:10078000F7030319422CB92BC417EF2BC4133F08EE
:10079000C300C31FCD2BC8173B2CC8133B2C3F08ED
:1007A000C800C8174008C7004108C600C31FDC2B9B
:1007B000C8134415472C4411C5014210BD308400B4
:1007C00083135C2CC31B052C3B08C300421CEF2B7E
:1007D000C80CC70CC60CC50CF70A0319422CC51F60
:1007E000002CC60A031D002CC70A031D002CC80AD2
:1007F000031D002CC80CC70CC60CF70A0319422CA9
:10080000441B842BC41BC62B242C8030C806C81F55
:100810000D2C472C3F08C3001A2C3B08C300C80806
:10082000031D1A2CC708031D1A2CC608031D1A2CF9
:10083000F7013B2CC81B242C0310C50DC60DC70D9A
:10084000C80DF70B1A2C422CC31F282CC8173B2CA1
:10085000C8133B2C3E08F7003F08C8004008C700FB
:100860004108C6003B2C3A08F7003B08C8003C088A
:10087000C7003D08C6004808F8004708F9004608C8
:10088000FA007A2CF701F801F901FA017A2CC50176
:10089000C609C709C809C509C50A031D552CC60ADA
:1008A000031D552CC70A0319C80A4418632BC41822
:1008B000A52B4419DB2B0A2C0008C607031C662C49
:1008C000C70A031D662CC80A0319421484030008D2
:1008D000C707031C6E2CC80A0319421484030008BE
:1008E000801F803AC80703184214441A6A2BC41A9E
:1008F000AC2BE22B8312080083163708BE003B089E
:10090000BE06BE1F882C03110310B71B0314BB2C9B
:100910003708BE003A08BF003608BF020319962CFC
:10092000BE1FBB2C0308013A8300BB2C3B08BF0051
:100930003708BF020319A22CBE1FBB2C0308013AC3
:100940008300BB2C3C08BF003808BF020319AE2C43
:10095000BE1FBB2C0308013A8300BB2C3D08BF001F
:100960003908BF020319BA2CBE1FBB2C0308013A79
:100970008300BB2C0310831208000130AF0703185B
:10098000B00A2F08143C031DF52FB008031DF52FE6
:100990002E08053C031DD02C831606108312061466
:1009A0008316B901B801831234088316B700831285
:1009B00033088316B6000A30BA00BC016B30BB00A6
:1009C000C001BF01BE010130BD00C201C301B91F9A
:1009D000292D0130C2003908C8003808C70037087F
:1009E000C6003608C500FF30CC00CB00CA00C900E5
:1009F0002030D100CD01CE01CF01D0014808FA004E
:100A00004708F9004608F8004508F7000310771C6E
:100A1000172D4908CD074A0803184A0FCE074B087F
:100A200003184B0FCF074C0803184C0FD007D00CFE
:100A3000CF0CCE0CCD0CFA0CF90CF80CF70CD10B3A
:100A4000062D7A08B9007908B8007808B700770849
:100A5000B600BD08031D352DBE08031D352DBF088A
:100A6000031D352DC0080319B12D83103908D0009E
:100A70003808CF003708CE003608CD00D401D301A6
:100A8000D2013A08D1008312DB217A088316C00014
:100A90007908BF007808BE007708BD0043083B070F
:100AA000F8003C08FA000318FA0A7808C5007A082A
:100AB000C600C8010408C7004810831B48148314EB
:100AC000C930840083133908D0003808CF003708B4
:100AD000CE003608CD00D401D301D2013A08D100AE
:100AE0008312DB2183164708840083134818831779
:100AF00030304907F7004A08F80000300318013089
:100B0000F8074B08F900003003180130F9074C08CA
:100B1000FA00003003180130FA07450884008313F7
:100B2000461883177708800043083B078400831327
:100B30003C1883170008393C0318A72D43083B07CE
:100B4000840083133C188317073000078000C30A12
:100B50004008B9003F08B8003E08B7003D08B6009D
:100B6000292D420BBC2D43083B07840083133C18FE
:100B700083172D308000C30AC1010310430C4102CA
:100B80000318F22D41083B07840083133C18831798
:100B90000008C40041083B07F8003C08FA000318AD
:100BA000FA0A7808C5007A08C60041084302FF3EE9
:100BB0003B07840083133C1883170008C7004508CF
:100BC00084008313461883174708800041084302B6
:100BD000FF3E3B07840083133C18831744088000C2
:100BE000C10ABD2D43083B07840083133C188317BB
:100BF00080013B08F8003C08F900F4016F30F30075
:100C00006B308400831380080319262EB701040873
:100C1000B6003710831B37140008B800730884002F
:100C200083137418831738088000840A8001F30A3C
:100C30000319F40A36088400831337188317840ACB
:100C4000031D252E8312850A8316032E0130B6005C
:100C5000B701B708031D302E80303607B800332E99
:100C6000C0303607B8000130B9008312572283160E
:100C70003808BA008312AE222030F700F70B3E2E60
:100C8000412E00008316B7016F30B6003708FA0016
:100C90003608840083137A18831780080319682E96
:100CA0003708FA003608840083137A18831700087F
:100CB000B8003808B9008312091483163908BA003D
:100CC0008312AE2209108316B60A0319B70A462EFC
:100CD000831231082E02F700FA013208031C320F8A
:100CE000FA0277088316B6007A08B7008E30F7004C
:100CF0003708F8003608F900FA01F808031D8A2EB3
:100D00007908F800F9010830F702F808031D8A2E67
:100D1000F701922E0310F81B912EF90DF80DF70331
:100D20008A2EF8137A088312D6007908D50078083D
:100D3000D4007708D3004A088316BD0083124908FF
:100D40008316BC00831248088316BB008312470831
:100D50008316BA00831256088316C1008312550801
:100D60008316C000831254088316BF0083125308F1
:100D70008316BE008312BF22831066088316BD004F
:100D8000831265088316BC00831264088316BB00B7
:100D9000831263088316BA007A08C1007908C0007C
:100DA0007808BF007708BE00831236237A088316BE
:100DB000B9007908B8007808B7007708B600831240
:100DC0004E088316BD0083124D088316BC008312A3
:100DD0004C088316BB0083124B088316BA0083129B
:100DE0005A088316C100831259088316C000831263
:100DF00058088316BF00831257088316BE0083125B
:100E0000BF22831083163908BD003808BC0037089C
:100E1000BB003608BA007A08C1007908C00078081B
:100E2000BF007708BE00831236237A088316B90004
:100E30007908B8007808B7007708B600831252081E
:100E40008316BD00831251088316BC00831250081C
:100E50008316BB0083124F088316BA0083125E0804
:100E60008316C10083125D088316C00083125C08DC
:100E70008316BF0083125B088316BE008312BF2255
:100E8000831083163908BD003808BC003708BB0042
:100E90003608BA007A08C1007908C0007808BF0097
:100EA0007708BE00831236237A08E2007908E10051
:100EB0007808E0007708DF006208E6006108E500D6
:100EC0006008E4005F08E3005A08DE005908DD000E
:100ED0005808DC005708DB005608DA005508D9002E
:100EE0005408D8005308D70062088316B90083124B
:100EF00061088316B800831260088316B700831256
:100F00005F088316B600BD01BC01BB01BA018312A4
:100F10007C2403188D2F031D8F2FE701F02F8316DC
:100F2000B901B8012030B7008330B60083126208DF
:100F30008316BD00831261088316BC00831260080B
:100F40008316BB0083125F088316BA0083127C24C9
:100F50000318AC2F031DAF2FFA30E700F02F620803
:100F60008316BD00831261088316BC0083126008DB
:100F70008316BB0083125F088316BA00C101C0014B
:100F80004830BF008230BE008312BF227A08831629
:100F9000B9007908B8007808B7007708B6008E3035
:100FA000F7003608F7023708F9003808F800F91793
:100FB000F7080319E62F0310F908031DE22FF808BC
:100FC0000319E62FF90CF80CF70BDB2FB71FED2FE9
:100FD000F809F909F80A0319F90A78088312E700F1
:100FE00067089500AE01B001AF010B118A110A121A
:020FF0002728B0
:101000000130AE078316B80183122E088316B7008D
:101010000230BA005830B9008A11831241208A1573
:1010200079088316B7007808B6003708BA00360882
:10103000B900BC012930BB008A11831258208A15DF
:101040007908B4007808B3000D108A110A12272815
:1010500083160812881208138813091109108910C1
:101060008312A7018B1BA7178B138316BC018A1150
:1010700083126B228A15A71B8B17A7018B1BA7173F
:101080008B1314308316B9008A11831257228A15E4
:10109000A71B8B1709108910A7018B1BA7178B1390
:1010A00003308316BC008A1183126B228A15A71B9A
:1010B0008B178A11A2228A15A7018B1BA7178B13E6
:1010C00005308316B9008A11831257228A15A71B8F
:1010D0008B178A11A2228A154230F700F70B6E286F
:1010E00000008A11A2228A15A7018B1BA7178B1358
:1010F00002308316BC008A1183126B228A15A71B4B
:101100008B178A11A2228A15A7018B1BA7178B1395
:1011100028308316BA008A118312AE228A15A71BC3
:101120008B17A7018B1BA7178B130C308316BA00E4
:101130008A118312AE228A15A71B8B17A7018B1B5E
:10114000A7178B1306308316BA008A118312AE22BA
:101150008A15A71B8B17A7018B1BA7178B130130B1
:101160008316BA008A118312AE228A15A71B8B1729
:101170008A150A12C4298316280803198129B40084
:101180002C0803198129B402031CCB287F30B40733
:1011900003188129D1288130B402031C8129031945
:1011A00081293408F700F801F901FA01B30129088F
:1011B000B200B2172A08B1002B08B0001930B400F1
:1011C0002F08B0020318F4280130B1020318F428E4
:1011D000B2020318F428B3020318F428B30AB20ABF
:1011E000B10A2F08B00726292E08B10203180F29CB
:1011F0000130B20203180F29B30203180F29B30AF2
:10120000B20A2E08B1072F08B007031C2629B10A1D
:10121000031D2629B20A031D2629B30A26292D08F3
:101220008038B202031825290130B302031825299A
:10123000B30A2D088038B2072E08B107031C032912
:10124000B20A031D0329B30A03297A14B40B29290E
:1012500034290310B00DB10DB20DB30D0310FA0D0A
:10126000F90DF80DB50DE028351C3C290310F80CDC
:10127000F90CFA0CB50C3F29F70303198129B51BAA
:1012800068290310B00DB10DB20DB30D2F08B002D7
:10129000031854290130B10203185429B20203186B
:1012A0005429B302031C77292E08B10203185F29C1
:1012B0000130B20203185F29B302031C77292D08FD
:1012C0008038B202031868290130B302031C772961
:1012D000FA0A031D7729F90A031D7729F80A031D65
:1012E0007729F70A03198129F80CF90CFA0C290857
:1012F000B4002D08B406B41F7F29F8178529F81308
:101300008529F701F801F901FA01831208000308A1
:101310001F3983008316031787110C3003139900BC
:10132000A2309800903083129800AE01B001AF0156
:10133000B601B501DA01D901D801D701DE01DD011D
:10134000DC01DB01E601E501E401E301F401F30165
:10135000FF30F500831603170908C039890003130D
:101360001F129F1200300317880083128701880123
:10137000890183130313A801A90102308316860093
:1013800086018312860128284230BA006030B900F5
:101390006530B8007730B7003030BE006530BD0032
:1013A0006030BC007030BB008230C200A830C10089
:1013B0007B30C0006E30BF00CD30C600CC30C500E1
:1013C0004C30C4007B30C300A7018B1BA7178B13C5
:1013D0003E088316BD0083123D088316BC008312AD
:1013E0003C088316BB0083123B088316BA008312A5
:1013F00046088316C100831245088316C000831275
:1014000044088316BF00831243088316BE008A1166
:101410008312BF228A15A71B8B177A088316A30095
:101420007908A2007808A1007708A0002308AB0083
:101430002208AA002108A9002008A800AF01AE01D7
:10144000AD018030AC008312BB208310A7018B1B41
:10145000A7178B133A088316BD0083123908831629
:10146000BC00831238088316BB008312370883162A
:10147000BA007A08C1007908C0007808BF00770870
:10148000BE008A11831236238A15A71B8B177A0890
:101490008316A3007908A2007808A1007708A000AD
:1014A000831242088316AB00831241088316AA00F8
:1014B000831240088316A90083123F088316A800F0
:1014C000831246088316AF00831245088316AE00C8
:1014D000831244088316AD00831243088316AC00C0
:1014E0008312BB208310A7018B1BA7178B138316B6
:1014F0002308BD002208BC002108BB002008BA0058
:101500007A08C1007908C0007808BF007708BE00DB
:101510008A11831236238A15A71B8B177A08CA00F3
:101520007908C9007808C8007708C700370883160B
:10153000A00083123808803A8316A100831239086C
:101540008316A20083123A088316A3008312A70110
:101550008B1BA7178B133E088316BD0083123D0813
:101560008316BC0083123C088316BB0083123B0821
:101570008316BA00831246088316C10083124508F9
:101580008316C000831244088316BF0083124308E9
:101590008316BE008A118312BF228A15A71B8B17E0
:1015A0007A088316A7007908A6007808A5007708AE
:1015B000A4002708AB002608AA002508A9002408D3
:1015C000A800AF01AE01AD018030AC008312BB209A
:1015D0008310A7018B1BA7178B1383162308BD004D
:1015E0002208BC002108BB002008BA007A08C1000C
:1015F0007908C0007808BF007708BE008A118312FE
:1016000036238A15A71B8B177A088316A30079083F
:10161000A2007808A1007708A0008312A7018B1B05
:10162000A7178B138316BD01BC01BB018030BA0024
:10163000831242088316C100831241088316C0003A
:10164000831240088316BF0083123F088316BE0032
:101650008A118312BF228A15A71B8B177A0883165B
:10166000A7007908A6007808A5007708A400270835
:10167000AB002608AA002508A9002408A8008312A8
:1016800046088316AF00831245088316AE00831206
:1016900044088316AD00831243088316AC008312FE
:1016A000BB208314A7018B1BA7178B13831623085A
:1016B000BD002208BC002108BB002008BA007A083F
:1016C000C1007908C0007808BF007708BE008A1101
:1016D000831236238A15A71B8B177A08CE00790848
:1016E000CD007808CC007708CB0042088316AB0009
:1016F000831241088316AA00831240088316A900AA
:1017000083123F088316A800831246088316AF0091
:10171000831245088316AE00831244088316AD0079
:10172000831243088316AC008312BB207A08D200D0
:101730007908D1007808D0007708CF0075117508B6
:1017400083168700831207110C30970083169B01C4
:101750009C0101309D00F5147508870083129D01DE
:1017600005309D000030F80006389200FA308316EC
:1017700092008312950183160108C0390338810055
:0C1780008C16C03083128B04C42B630055
:04400E00F22CFF3F52
:00000001FF
;PIC16F887
;CRC=9A64  CREATED="28-Nov-14 15:13"
