:1000000001308A0097290000FF00030E8301A10040
:100010000A08A0008A010408A2007708A300780853
:10002000A4007908A5007A08A600831383128C30F7
:100030008400801E1D288C1A2E2822088400230884
:10004000F7002408F8002508F9002608FA0020081F
:100050008A00210E8300FF0E7F0E09008A110A120A
:100060003128B501B5013508013C031C4128303069
:100070003507840083138C1E3B281A088000B50ABC
:100080003328B7013030B600BB01B9010A30BA00DD
:10009000B80136083704031D50280030F800412904
:1000A0003B08BB0A36078400831337188317000800
:1000B000BC003C082D3C031D69280130B9003B08F9
:1000C000BB0A360784008313371883170008BC0067
:1000D00076283C082B3C031D76283B08BB0A3607D4
:1000E00084008313371883170008BC003C082F3C9A
:1000F000031837293C08393C031C37293C08303C9D
:10010000031DA2283B083607840083133718831782
:100110000008783C031996283B08360784008313AF
:10012000371883170008583C031DA2281030BA0066
:10013000BB0A3B08BB0A36078400831337188317B2
:100140000008BC003A080A3C031DE5283C082F3C87
:100150000318E4283C08393C031CE4280A30BD009D
:100160003808BE00F701F8013D0803103E18F707F4
:10017000F70CF80CBE18F707F70CF80C3E19F70748
:10018000F70CF80CBE19F707F70CF80C3E1AF70736
:10019000F70CF80CBE1AF707F70CF80C3E1BF70724
:1001A000F70CF80CBE1BF707F70CF80C30303C02CC
:1001B0007807B8003B08BB0A36078400831337185A
:1001C00083170008BC00A62837293A08103C031DF5
:1001D00037293C08603C0318F4283C087A3C031C8F
:1001E000F4283C08DF39F5283C08BC003C082F3CCB
:1001F0000318FE283C08393C031806293C08403CFB
:10020000031837293C08463C031C37293C082F3C7F
:10021000031817293C08393C031C1729380EBD0068
:10022000F030BD0530303C023D07B8002029380EC3
:10023000BD00F030BD0541303C020A3E3D07B8002C
:100240003B08BB0A3607840083133718831700085E
:10025000BC003C08603C031834293C087A3C031C71
:1002600034293C08DF3935293C08BC00F628390B15
:100270003F293A080A3C031D3F29B809B80A380843
:10028000F8007808AF00B7012F08B6000330B900B6
:100290002030B800F801F901F701FA013908031D0F
:1002A0005429380803196E291030BA000310B60D0E
:1002B000B70DF70DFA0D39087A02031D61293808C8
:1002C0007702031C6A293808F702031CFA0339086D
:1002D000FA020314F80DF90DBA0B56297908B70084
:1002E0007808B6003708B9003608B800BB017D3081
:1002F000BA001030BC00F701FA01B90CB80C031CAD
:1003000087293A08F7070318FA0A3B08FA07FA0C94
:10031000F70CF90CF80CBC0B7D297908AE007808B5
:10032000AD00323095008C128A110A121D28030884
:100330001F3983008316031787110C3003139900AC
:10034000A2309800903083129800AF01FF30B300C4
:10035000831603170908C039890003131F129F125F
:1003600000300317880083128701880189018313F5
:100370000313A701A80133113308831687008312E2
:1003800007110C30970083169B019C0101309D00E2
:100390000030F8000638831292007C3083169200F9
:1003A0008312950183168C16C03083128B0483163A
:1003B000061483120618E3293310330883168700C6
:1003C00083120714E9293310330883168700831238
:0603D0000710D7296300AD
:04400E00F22CFF3F52
:00000001FF
;PIC16F887
;CRC=2DC7  CREATED="26-Nov-14 20:41"
