:1000000008308A0000280000FF00030E8301A100D1
:100010000A08A0008A010408A2007708A300780853
:10002000A4007908A5007A08A600831383128B1E0A
:100030001B280B1936280B1E1F288B1839288D30CA
:100040008400001C25280D183C2822088400230861
:10005000F7002408F8002508F9002608FA0020080F
:100060008A00210E8300FF0E7F0E09008A110A12FA
:100070004B2B8A110A123F288A110A127E2E413018
:10008000B30033088316B6003C30B7003708F801D8
:10009000360203184E283608F7005A28F7010830B0
:1000A000B800B60DF70D370877020318F700F80D02
:1000B000B80B51288312B2017808B1007D30950049
:1000C0000B1283160D1483128B168B108A110A12D1
:1000D000252883186E28D530840083138316500892
:1000E00054068039DA00D01F8028CD09CE09CF0907
:1000F000D009CD0A0319CE0A0319CF0A0319D00A71
:10010000D41F8D28D109D209D309D409D10A0319E2
:10011000D20A0319D30A0319D40AF701F801F90125
:10012000FA01D501D601D701D8015408530452046D
:1001300051040319CB282030D9000310CD0DCE0D6A
:10014000CF0DD00DD50DD60DD70DD80D54085802B2
:10015000031DB42853085702031DB4285208560241
:10016000031DB42851085502031CC5285108D502A7
:100170005208031C520FD6025308031C530FD70218
:100180005408031C540FD8020314F70DF80DF90D91
:10019000FA0DD90B9D28DA1FD828F709F809F909B3
:1001A000FA09F70A0319F80A0319F90A0319FA0AEE
:1001B00055088000840A56088000840A5708800089
:1001C000840A5808800083120800B9308400831321
:1001D00000080319F8280230F800F701F70BEE28A1
:1001E000F80BED289730F700F70BF428800BEB287D
:1001F000080083163C18002983120812022983166E
:1002000083120816031083163C0C0139031D0C29B8
:10021000831288120E2983168312881683163C0CCB
:10022000F700F70C3F30F70577080139031D1C294B
:10023000831208131E2983168312081783163C0C99
:10024000F700F70CF70C1F30F70577080139031D8D
:100250002D29831288132F298316831288170800EB
:10026000091532293329342909112030F700F70BF9
:1002700037293A290000080083163A0EBB000F30D8
:10028000BB053B08BC008312F920302183163A08D5
:10029000BC008312F9203021080083163A080319A4
:1002A000BE29C2003E080319BE29C20703185F29F0
:1002B0007F30C202031CBE290319BE296329813085
:1002C000C2070318BE294208F700F801F901FA0134
:1002D0003B08C600C6173C08C5003D08C4001830DE
:1002E000C200C301441C8C294108FA07031C7E2963
:1002F000F90A031D7E29F80A0319C3174008F907F4
:10030000031C8529F80A0319C3173F08BC00BC1752
:100310003C08F8070318C317C30DF80CF90CFA0CC6
:10032000C60CC50CC40C0310C20B71290130F707B1
:100330000318BE29F81BA329C60DFA0DF90DF80DF7
:10034000F7030319BE29C61FB429FA0A031DB429ED
:10035000F90A031DB429F80A031DB429F80CF90C95
:10036000FA0CF70A0319BE293B08C3003F08C3066D
:10037000C31FBC29F817C229F813C229F701F801D5
:10038000F901FA01831208008030831CCA29831600
:10039000BF0683128316C401C5013B08C3003F0892
:1003A000C3063A080319B82AC200F7003E08031929
:1003B000C12AC20203195D2A031C1B2A3F08C80078
:1003C000C8174008C7004108C600C5010310C80C83
:1003D000C70CC60CC50CC20BE529C31FF229441477
:1003E000D52A441042104416BD3084008313EA2AF3
:1003F0004412C31B052A421C102AC80CC70CC60C89
:10040000C50CF70A0319D02A102AC81B132A031097
:10041000C50DC60DC70DC80DF7030319D02A052A4F
:1004200044177D2A44133B08C300C31F192AC81769
:10043000C92AC813C92A3E08C200F7003A08C202F6
:100440003B08C800C8173C08C7003D08C600C501E6
:100450000310C80CC70CC60CC50CC20B272AC31F3F
:10046000342AC414D52AC4104210C416C1308400E2
:100470008313EA2AC412C31B472A421C522AC80CFF
:10048000C70CC60CC50CF70A0319D02A522AC81B80
:10049000552A0310C50DC60DC70DC80DF703031966
:1004A000D02A472AC4177D2AC4133F08C300C31F9C
:1004B0005B2AC817C92AC813C92A3F08C800C81729
:1004C0004008C7004108C600C31F6A2AC813441564
:1004D000D52A4411C5014210BD3084008313EA2A95
:1004E000C31B932A3B08C300421C7D2AC80CC70CBF
:1004F000C60CC50CF70A0319D02AC51F8E2AC60AD6
:10050000031D8E2AC70A031D8E2AC80A031D8E2AC0
:10051000C80CC70CC60CF70A0319D02A441B122AB0
:10052000C41B542AB22A8030C806C81F9B2AD52A69
:100530003F08C300A82A3B08C300C808031DA82A17
:10054000C708031DA82AC608031DA82AF701C92A3F
:10055000C81BB22A0310C50DC60DC70DC80DF70B79
:10056000A82AD02AC31FB62AC817C92AC813C92A5D
:100570003E08F7003F08C8004008C7004108C60011
:10058000C92A3A08F7003B08C8003C08C7003D08E4
:10059000C6004808F8004708F9004608FA00082B8A
:1005A000F701F801F901FA01082BC501C609C709CD
:1005B000C809C509C50A031DE32AC60A031DE32AA3
:1005C000C70A0319C80A4418F129C418332A441960
:1005D000692A982A0008C607031CF42AC70A031DC3
:1005E000F42AC80A0319421484030008C707031C2D
:1005F000FC2AC80A0319421484030008801F803AA9
:10060000C80703184214441AF829C41A3A2A702A4F
:100610008312080083163708BE003B08BE06BE1FC3
:10062000162B03110310B71B0314492B3708BE0008
:100630003A08BF003608BF020319242BBE1F492BFE
:100640000308013A8300492B3B08BF003708BF026B
:100650000319302BBE1F492B0308013A8300492B95
:100660003C08BF003808BF0203193C2BBE1F492BB2
:100670000308013A8300492B3D08BF003908BF0237
:100680000319482BBE1F492B0308013A8300492B4D
:100690000310831208000130AF070318B00A2F08B7
:1006A000053C031D7A2EB008031D7A2E8316B9016E
:1006B000B801B70183122E088316B6000A30BA00BB
:1006C000BC016830BB00C001BF01BE010130BD00EC
:1006D000C201C301B91FAC2B0130C2003908C800E8
:1006E0003808C7003708C6003608C500FF30CC0000
:1006F000CB00CA00C9002030D100CD01CE01CF010E
:10070000D0014808FA004708F9004608F8004508F3
:10071000F7000310771C9A2B4908CD074A080318E5
:100720004A0FCE074B0803184B0FCF074C0803188E
:100730004C0FD007D00CCF0CCE0CCD0CFA0CF90C12
:10074000F80CF70CD10B892B7A08B9007908B8009E
:100750007808B7007708B600BD08031DB82BBE089F
:10076000031DB82BBF08031DB82BC0080319342C78
:1007700083103908D0003808CF003708CE0036087B
:10078000CD00D401D301D2013A08D10083126920EF
:100790007A088316C0007908BF007808BE00770881
:1007A000BD0043083B07F8003C08FA000318FA0AAA
:1007B0007808C5007A08C600C8010408C7004810B8
:1007C000831B48148314C930840083133908D00074
:1007D0003808CF003708CE003608CD00D401D30149
:1007E000D2013A08D1008312692083164708840099
:1007F00083134818831730304907F7004A08F80078
:10080000003003180130F8074B08F90000300318D6
:100810000130F9074C08FA00003003180130FA07DC
:10082000450884008313461883177708800043081F
:100830003B07840083133C1883170008393C0318D6
:100840002A2C43083B07840083133C188317073086
:1008500000078000C30A4008B9003F08B8003E08FE
:10086000B7003D08B600AC2B420B3F2C43083B07BA
:10087000840083133C1883172D308000C30AC10104
:100880000310430C41020318752C41083B078400F8
:1008900083133C1883170008C40041083B07F80085
:1008A0003C08FA000318FA0A7808C5007A08C6005E
:1008B00041084302FF3E3B07840083133C18831723
:1008C0000008C700450884008313461883174708AB
:1008D000800041084302FF3E3B07840083133C181D
:1008E000831744088000C10A402C43083B0784005A
:1008F00083133C18831780013B08F8003C08F9007B
:10090000F1016C30F0006830840083138008031913
:10091000A92CB7010408B6003710831B3714000850
:10092000B80070088400831371188317380880009A
:10093000840A8001F00A0319F10A3608840083133F
:1009400037188317840A031DA82C8312850A83167F
:10095000862C0130B600B701B708031DB32C8030D8
:100960003607B800B62CC0303607B8000130B900E1
:100970008312E52083163808BA0083123C21203008
:10098000F700F70BC12CC42C00008316B7016C30A4
:10099000B6003708FA003608840083137A188317E4
:1009A00080080319EB2C3708FA00360884008313FB
:1009B0007A1883170008B8003808B90083120914A0
:1009C00083163908BA0083123C2109108316B60A2F
:1009D0000319B70AC92C831231082E02F700FA0155
:1009E0003208031C320FFA0277088316B6007A0821
:1009F000B7008E30F7003708F8003608F900FA0122
:100A0000F808031D0D2D7908F800F9010830F702E8
:100A1000F808031D0D2DF701152D0310F81B142DDB
:100A2000F90DF80DF7030D2DF8137A088312D30092
:100A30007908D2007808D1007708D00047088316DB
:100A4000BD00831246088316BC0083124508831636
:100A5000BB00831244088316BA008312530883161E
:100A6000C100831252088316C000831251088316F6
:100A7000BF00831250088316BE0083124D218310DD
:100A800063088316BD00831262088316BC008312BC
:100A900061088316BB00831260088316BA007A08C7
:100AA000C1007908C0007808BF007708BE00831233
:100AB000C4217A088316B9007908B8007808B7000D
:100AC0007708B60083124B088316BD0083124A08CC
:100AD0008316BC00831249088316BB0083124808A2
:100AE0008316BA00831257088316C1008312560872
:100AF0008316C000831255088316BF008312540862
:100B00008316BE0083124D21831083163908BD0061
:100B10003808BC003708BB003608BA007A08C100A4
:100B20007908C0007808BF007708BE008312C4218E
:100B30007A088316B9007908B8007808B7007708F2
:100B4000B60083124F088316BD0083124E08831629
:100B5000BC0083124D088316BB0083124C08831619
:100B6000BA0083125B088316C10083125A088316E9
:100B7000C000831259088316BF00831258088316D9
:100B8000BE0083124D21831083163908BD0038083A
:100B9000BC003708BB003608BA007A08C1007908E3
:100BA000C0007808BF007708BE008312C4217A080D
:100BB000DF007908DE007808DD007708DC005F08D8
:100BC000E3005E08E2005D08E1005C08E000570811
:100BD000DB005608DA005508D9005408D80053083D
:100BE000D7005208D6005108D5005008D4005F083D
:100BF0008316B90083125E088316B80083125D085D
:100C00008316B70083125C088316B600BD01BC01D1
:100C1000BB01BA0183120A230318102E031D122EE2
:100C2000E401752E8316B901B8014030B700823057
:100C3000B60083125F088316BD0083125E08831618
:100C4000BC0083125D088316BB0083125C08831608
:100C5000BA0083120A2303182F2E031D322EFB30F5
:100C6000E400752E5F088316BD0083125E088316AC
:100C7000BC0083125D088316BB0083125C088316D8
:100C8000BA00FC30C100A930C0002630BF0083305C
:100C9000BE0083124D217A088316B9007908B80086
:100CA0007808B7007708B6008E30F7003608F702EC
:100CB0003708F9003808F800F917F70803196B2E00
:100CC0000310F908031D672EF80803196B2EF90CA1
:100CD000F80CF70B602EB71F722EF809F909F80A05
:100CE0000319F90A78088312E40064089500AE013C
:100CF000B001AF010B118A110A1225280130AE078D
:100D00000D108A110A12252883160812881208135A
:100D100088130911091089108312A7018B1BA717CB
:100D20008B138316BC018312F920A71B8B17A70115
:100D30008B1BA7178B1314308316B9008312E52081
:100D4000A71B8B1709108910A7018B1BA7178B13E3
:100D500003308316BC008312F920A71B8B173021A8
:100D6000A7018B1BA7178B1305308316B9008312BD
:100D7000E520A71B8B1730214230F700F70BBE2E62
:100D800000003021A7018B1BA7178B13023083169D
:100D9000BC008312F920A71B8B173021A7018B1BE6
:100DA000A7178B1328308316BA0083123C21A71B88
:100DB0008B17A7018B1BA7178B130C308316BA0058
:100DC00083123C21A71B8B17A7018B1BA7178B1323
:100DD00006308316BA0083123C21A71B8B17A7018C
:100DE0008B1BA7178B1301308316BA0083123C218B
:100DF000A71B8B178A150A12372883162808031990
:100E0000C32FB4002C080319C32FB402031C0D2FE9
:100E10007F30B4070318C32F132F8130B402031C93
:100E2000C32F0319C32F3408F700F801F901FA01A1
:100E3000B3012908B200B2172A08B1002B08B0008C
:100E40001930B4002F08B0020318362F0130B10258
:100E50000318362FB2020318362FB3020318362FA9
:100E6000B30AB20AB10A2F08B007682F2E08B102E0
:100E70000318512F0130B2020318512FB302031887
:100E8000512FB30AB20A2E08B1072F08B007031C6E
:100E9000682FB10A031D682FB20A031D682FB30A19
:100EA000682F2D088038B2020318672F0130B30273
:100EB0000318672FB30A2D088038B2072E08B10730
:100EC000031C452FB20A031D452FB30A452F7A1480
:100ED000B40B6B2F762F0310B00DB10DB20DB30D07
:100EE0000310FA0DF90DF80DB50D222F351C7E2FCC
:100EF0000310F80CF90CFA0CB50C812FF703031949
:100F0000C32FB51BAA2F0310B00DB10DB20DB30D39
:100F10002F08B0020318962F0130B1020318962F44
:100F2000B2020318962FB302031CB92F2E08B10288
:100F30000318A12F0130B2020318A12FB302031C22
:100F4000B92F2D088038B2020318AA2F0130B3023E
:100F5000031CB92FFA0A031DB92FF90A031DB92F73
:100F6000F80A031DB92FF70A0319C32FF80CF90C5F
:100F7000FA0C2908B4002D08B406B41FC12FF817C5
:100F8000C72FF813C72FF701F801F901FA018312EF
:020F9000080057
:1010000003081F3983008316031787110C3003135D
:101010009900A2309800903083129800AE01B00180
:10102000AF01B301D701D601D501D401DB01DA014B
:10103000D901D801E301E201E101E001F101F00190
:10104000FF30F200831603170908C0398900031323
:101050001F129F1200300317880083128701880136
:10106000890183130313A801A9018A11842E8A150B
:10107000CD30B700CC30B6004C30B5007B30B4007A
:101080002830BB002930BA003030B9007130B800C8
:10109000CD30BF00CC30BE004C30BD007B30BC003A
:1010A000CD30C300CC30C2004C30C1007B30C0001A
:1010B000A7018B1BA7178B133B088316BD00831258
:1010C0003A088316BC00831239088316BB008312CA
:1010D00038088316BA00831243088316C1008312AE
:1010E00042088316C000831241088316BF00831292
:1010F00040088316BE008A1183124D218A15A71B52
:101100008B177A088316A3007908A2007808A1003B
:101110007708A0002308AB002208AA002108A90034
:101120002008A800AF01AE01AD018030AC008A11EB
:101130008312FD268A158310A7018B1BA7178B131B
:1011400037088316BD00831236088316BC0083124D
:1011500035088316BB00831234088316BA007A0858
:10116000C1007908C0007808BF007708BE008A1166
:101170008312C4218A15A71B8B177A088316A30034
:101180007908A2007808A1007708A00083123F0820
:101190008316AB0083123E088316AA0083123D0813
:1011A0008316A90083123C088316A8008312430803
:1011B0008316AF00831242088316AE0083124108E3
:1011C0008316AD00831240088316AC008A11831287
:1011D000FD268A158310A7018B1BA7178B13831677
:1011E0002308BD002208BC002108BB002008BA006B
:1011F0007A08C1007908C0007808BF007708BE00EF
:101200008A118312C4218A15A71B8B177A08C7007D
:101210007908C6007808C5007708C400340883162A
:10122000A00083123508803A8316A1008312360885
:101230008316A200831237088316A3008312A70126
:101240008B1BA7178B133B088316BD0083123A082C
:101250008316BC00831239088316BB00831238083A
:101260008316BA00831243088316C1008312420812
:101270008316C000831241088316BF008312400802
:101280008316BE008A1183124D218A15A71B8B1766
:101290007A088316A7007908A6007808A5007708C1
:1012A000A4002708AB002608AA002508A9002408E6
:1012B000A800AF01AE01AD018030AC008A118312ED
:1012C000FD268A158310A7018B1BA7178B13831686
:1012D0002308BD002208BC002108BB002008BA007A
:1012E0007A08C1007908C0007808BF007708BE00FE
:1012F0008A118312C4218A15A71B8B177A088316BB
:10130000A3007908A2007808A1007708A000831242
:10131000A7018B1BA7178B138316BD01BC01BB0153
:101320008030BA0083123F088316C10083123E0842
:101330008316C00083123D088316BF0083123C0849
:101340008316BE008A1183124D218A15A71B8B17A5
:101350007A088316A7007908A6007808A500770800
:10136000A4002708AB002608AA002508A900240825
:10137000A800831243088316AF0083124208831625
:10138000AE00831241088316AD0083124008831615
:10139000AC008A118312FD268A158314A7018B1BCA
:1013A000A7178B1383162308BD002208BC00210851
:1013B000BB002008BA007A08C1007908C00078088C
:1013C000BF007708BE008A118312C4218A15A71BAB
:1013D0008B177A08CB007908CA007808C90077080B
:1013E000C8003F088316AB0083123E088316AA008C
:1013F00083123D088316A90083123C088316A800B7
:10140000831243088316AF00831242088316AE008E
:10141000831241088316AD00831240088316AC0086
:101420008A118312FD268A157A08CF007908CE002A
:101430007808CD007708CC007211720883168700F7
:10144000831207110C30970083169B019C01013019
:101450009D00F2147208870083129D0105309D00E3
:101460000030F80006389200FA308316920083129A
:10147000950183160108C0390338810083120B16C9
:0E14800083160113C03083128B04452A6300CB
:04400E00F22CFF3F52
:00000001FF
;PIC16F887
;CRC=1418  CREATED="28-Nov-14 00:19"
